:020000040800F2
:10000000000C00202D0E0008CD020008CF020008D1
:1000100000000000000000000000000000000000E0
:10002000000000000000000000000000D1020008F5
:100030000000000000000000D3020008D502000804
:100040000000000000000000000000007D0E00081D
:100050007D0E00082D0300087D0E00087D0E0008AF
:100060000000000000000000000000000000000090
:100070007D0E00087D0E00088905000800000000C4
:10008000000000007D0E00080000000000000000DD
:1000900000000000E1060008000000007D0E0008DE
:1000A000000000007D0E0008000000007D0E00082A
:1000B0000000000000000000000000000000000040
:1000C0000448054B10B5834203D0044B002B00D0ED
:1000D000984710BDFC000020FC000020000000003C
:1000E00006480749091A8B10C90FC91810B54910DD
:1000F00003D0044B002B00D0984710BDFC0000201B
:10010000FC0000200000000010B5074C2378002BF5
:1001100009D1FFF7D5FF054B002B02D0044800E0C2
:1001200000BF0123237010BDFC0000200000000070
:10013000800E0008054B10B5002B03D0044905487C
:1001400000E000BFFFF7CCFF10BDC046000000007C
:1001500000010020800E000870B50D4B0D4D5E1B98
:10016000B610AB4205D0002408CD01349847A64212
:10017000FAD800F085FE084B084D5E1BB610AB4266
:1001800005D0002408CD01349847A642FAD870BDA6
:10019000EC0E0008EC0E0008F00E0008EC0E000853
:1001A00002B4714649084900095C49008E4402BC0A
:1001B0007047C046002243088B4274D303098B4228
:1001C0005FD3030A8B4244D3030B8B4228D3030C27
:1001D0008B420DD3FF22090212BA030C8B4202D3C9
:1001E0001212090265D0030B8B4219D300E0090AF1
:1001F000C30B8B4201D3CB03C01A5241830B8B42FA
:1002000001D38B03C01A5241430B8B4201D34B03E2
:10021000C01A5241030B8B4201D30B03C01A524147
:10022000C30A8B4201D3CB02C01A5241830A8B42CC
:1002300001D38B02C01A5241430A8B4201D34B02B5
:10024000C01A5241030A8B4201D30B02C01A524119
:10025000CDD2C3098B4201D3CB01C01A52418309CD
:100260008B4201D38B01C01A524143098B4201D307
:100270004B01C01A524103098B4201D30B01C01A32
:100280005241C3088B4201D3CB00C01A52418308AC
:100290008B4201D38B00C01A524143088B4201D3D9
:1002A0004B00C01A5241411A00D201465241104639
:1002B0007047FFE701B5002000F006F802BDC04618
:1002C0000029F7D076E770477047C0467047FEE7D1
:1002D0007047704710B500F073FD10BD8022084BC9
:1002E00010B51B681202DB040648DB0C13434361A4
:1002F00000F076FB0021044800F08CFC10BDC046E5
:10030000100FFF1FD0000020C00000207FB501901B
:100310000392A020022201AB0291049219000B3239
:10032000C005059200F088FA07B000BDA02010B506
:100330000221C00500F01CFB424250410222024B48
:100340001870024BDA6010BD18010020001802403E
:1003500037B50124FFF7C2FF00F026FD294B02202C
:100360005A6B294922435A635B6B22002340019355
:10037000019BFFF7CBFF220012210820FFF7C6FFE9
:10038000002221001020FFF7C1FF002202210520DA
:1003900000F0F2F9052000F019FA002500F0D0F97C
:1003A00000F00AF900F018FD040000F0B3F800288E
:1003B00010D1A0200221C00500F0DAFA43425841D2
:1003C000124BC2B219788142ECD0A542EAD21A701F
:1003D000A51CE7E700F0BCF8431C05D00128E1D8D4
:1003E000002100F035F8DDE70121002000F030F8B1
:1003F0000120074900F052F90020064900F04EF9AB
:10040000D0E7C04600100240000031101801002063
:10041000FF050000FF02000010B50120044900F0B4
:1004200005F968210020FF3100F000F910BDC04639
:100430005702000010B50120044900F02FF968218F
:100440000020FF3100F02AF910BDC046570200001D
:1004500070B5002304002B4D012917D0286803280C
:1004600008D8FFF79DFE02082737012C02D12C6027
:10047000FFF7E0FF70BD012C0AD0EF21012000F052
:100480000DF90020204900F009F903232B60F1E762
:1004900000F0C6F8EF21200000F0C8F800201A494B
:1004A00000F0C4F8194B1E78002E0AD0FFF7B4FFF5
:1004B00002232B60FFF7B0FF00232B6000F0CCF885
:1004C000D8E72000EF2100F0B1F830000E4900F02D
:1004D000ADF8EDE7002C0BD0FFF7ACFF0C4A13682A
:1004E000013B1360002BC5D101332B601360C1E7C2
:1004F000EF21012000F0D2F82000034900F0CEF8EF
:10050000ECE7C0461C010020CF02000018010020CB
:10051000EC000020014B58687047C04620010020C5
:1005200070B50A4C0E2063789A1C920015590F2260
:1005300001331340637000F055F963680E20013BEE
:10054000636000F043F9280070BDC0462001002020
:1005500010B5FFF7E5FF0A4A83B2934209D8763A0D
:100560000120934204D2D83B0020762B00D90238D8
:1005700010BD044A00209B188A229A424041F6E7A7
:10058000B602000046FAFFFF0022094B986B1A6181
:10059000084B5A680F2A0AD81A78911C8900C8504B
:1005A0000F2101320A401A705A6801325A607047AE
:1005B000002C01402001002007B58021124B0901C9
:1005C0001A6C0E200A431A6400221B6C0B40019324
:1005D000019B0E490E4B9A629961D139FF3919621C
:1005E000233199605039D9600A4959630A49D9635E
:1005F0000A49196403211960023900F0BDF80E2080
:1006000000F0E4F807BDC0460010024001020000FF
:10061000002C014010270000204E00003075000023
:100620000022014B1A60704768010020084A10B58B
:100630001378C0079C1C48390143A400A1500F2126
:1006400001330B401370034A13680133136010BD6C
:100650006C0100206801002080220B4B9203DA67B6
:10066000BFF34F8FBFF36F8F084909484B6800688D
:100670001B184B60074B1A600122074BD9681142C7
:1006800001D15A61DA60704704E100E06C0100209A
:100690006801002000E100E0004401400E4B10B56D
:1006A0005A680F2A16D81A78C007941C4839014393
:1006B000A400E1500F2101320A401A7072B65A6844
:1006C00001325A6062B60122044BD968114201D14D
:1006D0005A61DA6010BDC0466C0100200044014040
:1006E000144810B543681449002B07D1A023802279
:1006F000DB0552039A610022CA6014E00F2442789D
:10070000013B4360931C9B001B5801322240427006
:100710009AB2DB430948DB170340A0201033C00521
:100720008361002AE7D00123CA624B61033B0B615E
:1007300010BDC0466C01002000440140F0FF0F00D6
:1007400007B580210A4B89021A6C15200A431A64E6
:100750001B6C01220B4000210193019B054B996208
:100760001A600A0000F008F8152000F02FF807BD05
:10077000001002400044014010B5FF2403220B008A
:1007800021000240D20091409B012340C943934085
:1007900000280ADBC0240B4A800880008018A400CF
:1007A00002590A401343035110BD0F22104008386C
:1007B000054A800880008018C26911401943C16150
:1007C000F2E7C04600E100E000ED00E0002805DBB4
:1007D0001F2318401E3B8340014A13607047C046E8
:1007E00000E100E0002809DB1F2318401E3B834086
:1007F000034AD367BFF34F8FBFF36F8F7047C04675
:1008000004E100E08022431E5204012093420DD2F5
:10081000C021074A07485360036A09061B021B0AE6
:100820000B43036200200723906013607047C046AB
:1008300010E000E000ED00E0494AF0B58218541ED7
:10084000A241002385B0013201910392019A1268FE
:100850001400DC4001D105B0F0BD01249C40A44649
:100860006146144000940A4277D0019A10245268DD
:100870001500A5430295022D0ED107250F261D4018
:10088000AD00AE40DC08A4000419276A0199B74303
:100890000E69AE403E432662032426005D00AE4052
:1008A0001440AC400168F743B1430C430460029C20
:1008B000013C012C0DD801998668CC683E40AC40C3
:1008C00034438460614614099C4046688E43344337
:1008D00044600199C6688C683E40AC403443C460B3
:1008E000D4003AD503260F241E40F600B4401D491B
:1008F0009D08AD006D182F6EA743A024E405041BCE
:10090000611E8C41039964420C40B44000993C4301
:100910000E002C66144CCD43E76F3E43D10301D447
:100920003E002E40E667114E009FF46F274391036F
:1009300001D42C4027000B4CF7672768009E3E43EC
:10094000D10201D43E002E4026606668009F3743E6
:10095000920201D42E4037006760013376E7C0462B
:1009600000FCFFAF001802400418024008180240C3
:1009700000690840431E9841C0B2704730B587B047
:1009800001A90A00134B31CB31C211CB11C2124B5A
:1009900038229C682000104014420ED107241A68A7
:1009A0005B68D20A5B0B22402340042B00D818005E
:1009B00080000858D04007B030BD99681140082920
:1009C00006D098681040183843425841C003F2E7F7
:1009D0000248F0E7980E00080010024000366E0151
:1009E000F8B5051E01D10120F8BD0368DB0708D466
:1009F0002B689B0758D42B681B0700D5C5E0002047
:100A0000F2E738227B4CA3681340082B06D12368F9
:100A10009B03EDD54368002BEAD1E4E74368002B44
:100A20002AD081680029DED00C20226982430A4343
:100A3000226180225202934211D122681343236023
:100A400000F0CAF980270600BF0223683B42CFD1DD
:100A500000F0C2F9801BC828F7D90320C4E7A02101
:100A6000C9028B4208D180232168DB020B4323603B
:100A700023681A432260E3E722685F490A40226044
:100A800022685E490A402260002BD9D100F0A4F907
:100A900080270600BF0223683B42A9D000F09CF9E2
:100AA000801BC828F7D9D8E73823524CA2681A42CD
:100AB00035D123685B0503D5EB68002B00D192E7A5
:100AC00063686A691B0C1B041343636000F084F9BC
:100AD00080270600FF0023683B421AD02368484A5B
:100AE00013402A6913432360FFF748FFA368454971
:100AF0001B051B0F9B005B581F210B40D840424A2F
:100B0000424B1060186800F027F9002800D172E706
:100B100069E700F061F9801B0228DCD99DE7EB68EA
:100B2000002B1FD02368364A802713402A69FF0014
:100B300013432360802322685B001343236000F08B
:100B40004BF9060023683B4206D063686A691B0CB8
:100B50001B04134363604EE700F03EF9801B02283C
:100B6000F0D97AE723682A4A80271340236000F0EF
:100B700033F90600FF0023683B4200D13BE700F059
:100B80002BF9801B0228F6D967E73822194CA36895
:100B90001340182B08D1236E9B0700D42FE7A869B8
:100BA00043425841C0B21FE7AA690123002A10D06E
:100BB000226E02261343236600F00EF90500236E11
:100BC000334200D01BE700F007F9401B0228F6D99A
:100BD00043E7226E02269A43226600F0FDF80500E4
:100BE000236E334200D10AE700F0F6F8401B0228DA
:100BF000F6D932E700100240FFFFFEFFFFFFFBFFC8
:100C0000FFC7FFFFAC0E0008F8000020F400002032
:100C1000FFFEFFFFF7B504000E00002801D1012000
:100C2000FEBD0127434D2B683B408B4228D32268F1
:100C3000930739D4D20746D401272B683B40B342EF
:100C400008D92B68BB432B6000F0C6F806002B6860
:100C50003B4260D12368384D5B0763D4FFF78EFEBB
:100C6000AB6836491B051B0F9B005B581F210B40CF
:100C7000D840334A334B1060186800F06DF8CFE766
:100C80002B68BB430B432B6000F0A6F801902B6848
:100C90003B40B342CBD000F09FF8019BC01A2A4BD7
:100CA0009842F4D90320BBE72349530704D5E02336
:100CB0008868DB0103438B608B6824480340A0688D
:100CC00003438B60B6E762681B4F012A19D13B686A
:100CD0009B03A4D50721BB688B431343BB6000F083
:100CE0007BF801903823BA681A406368DB009A42A7
:100CF000A2D000F071F8019BC01A134B9842F1D9B1
:100D0000D0E7002A03D13B685B05E3D487E73B6E5D
:100D10009B07DFD483E700F05FF80B4B801B984202
:100D200095D9BFE7AB680A4A1340E2681343AB604A
:100D300094E7C0460020024000100240AC0E0008BC
:100D4000F8000020F400002088130000FFF0FFFFEF
:100D5000FF8FFFFF70470000104B70B5196805004A
:100D6000002901D1012070BDFA208000FFF722FA8E
:100D70000B4C01002068FFF71DFAFFF743FD041E2E
:100D8000F0D1032DEED80200012029004042FFF7E8
:100D9000F3FC044B20001D60E5E7C046F000002096
:100DA000F8000020F400002010B50320FFF7D4FF66
:100DB000041E03D1FFF7CEFF200010BD0124FBE786
:100DC000034A0449136809685B1813607047C046FA
:100DD000B4010020F0000020014B18687047C046A5
:100DE000B40100200C490D4A4B6812681B0C1B040F
:100DF000134380229201134310B54B600023084C2B
:100E000008499A00105901335050302BF9D18022F3
:100E1000054B92059A6010BD00100240040FFF1FA1
:100E2000000000080000002000ED00E00D488546AD
:100E30000D480E490E4A002302E0D458C450043332
:100E4000C4188C42F9D30B4A0B4C002301E0136009
:100E50000432A242FBD3FFF7C5FFFFF77DF9FFF78E
:100E600077FAFEE7000C0020C0000020FC00002004
:100E7000F40E0008FC000020B8010020FEE700008E
:100E8000F8B5C046F8BC08BC9E467047F8B5C046E9
:080E9000F8BC08BC9E46704747
:100E980000093D0000127A000024F4004086510148
:100EA80000366E0100000000000000000000000095
:100EB800000000000000000000000000000000002A
:100EC8000000000001000000020000000300000014
:100ED80004000000060000000700000008000000F1
:040EE80009000000FD
:040EEC0035010008C4
:040EF00009010008EC
:100EF40007000000000000000000000000000000E7
:100F040002000000000000000000000000010000DA
:100F140000000000000000000000000001000000CC
:0C0F2400010000000400000000127A0030
:0400000508000E2DB4
:00000001FF
